{
	"contracts/Inharitance.sol": {
		"Inharitance": {
			"abi": [
				{
					"inputs": [
						{
							"internalType": "address payable",
							"name": "_recepient",
							"type": "address"
						},
						{
							"internalType": "uint256",
							"name": "_years",
							"type": "uint256"
						}
					],
					"stateMutability": "nonpayable",
					"type": "constructor"
				},
				{
					"inputs": [],
					"name": "claim",
					"outputs": [],
					"stateMutability": "nonpayable",
					"type": "function"
				},
				{
					"inputs": [],
					"name": "deposit",
					"outputs": [],
					"stateMutability": "payable",
					"type": "function"
				},
				{
					"inputs": [],
					"name": "lastVisited",
					"outputs": [
						{
							"internalType": "uint256",
							"name": "",
							"type": "uint256"
						}
					],
					"stateMutability": "view",
					"type": "function"
				},
				{
					"inputs": [],
					"name": "ping",
					"outputs": [],
					"stateMutability": "nonpayable",
					"type": "function"
				},
				{
					"inputs": [],
					"name": "retrive",
					"outputs": [],
					"stateMutability": "nonpayable",
					"type": "function"
				}
			],
			"devdoc": {
				"kind": "dev",
				"methods": {},
				"version": 1
			},
			"evm": {
				"assembly": "    /* \"contracts/Inharitance.sol\":60:1111  contract Inharitance{... */\n  mstore(0x40, 0x80)\n    /* \"contracts/Inharitance.sol\":204:447  constructor(address payable _recepient, uint _years){... */\n  callvalue\n  dup1\n  iszero\n  tag_1\n  jumpi\n  revert(0x00, 0x00)\ntag_1:\n  pop\n  mload(0x40)\n  sub(codesize, bytecodeSize)\n  dup1\n  bytecodeSize\n  dup4\n  codecopy\n  dup2\n  dup2\n  add\n  0x40\n  mstore\n  dup2\n  add\n  swap1\n  tag_2\n  swap2\n  swap1\n  tag_3\n  jump\t// in\ntag_2:\n    /* \"contracts/Inharitance.sol\":295:301  _years */\n  dup1\n    /* \"contracts/Inharitance.sol\":278:294  1 hours * 24*365 */\n  0x01e13380\n    /* \"contracts/Inharitance.sol\":278:301  1 hours * 24*365*_years */\n  tag_6\n  swap2\n  swap1\n  tag_7\n  jump\t// in\ntag_6:\n    /* \"contracts/Inharitance.sol\":267:275  tenYears */\n  0x01\n    /* \"contracts/Inharitance.sol\":267:301  tenYears = 1 hours * 24*365*_years */\n  dup2\n  swap1\n  sstore\n  pop\n    /* \"contracts/Inharitance.sol\":322:337  block.timestamp */\n  timestamp\n    /* \"contracts/Inharitance.sol\":312:321  startTime */\n  0x00\n    /* \"contracts/Inharitance.sol\":312:337  startTime=block.timestamp */\n  dup2\n  swap1\n  sstore\n  pop\n    /* \"contracts/Inharitance.sol\":362:377  block.timestamp */\n  timestamp\n    /* \"contracts/Inharitance.sol\":348:359  lastVisited */\n  0x02\n    /* \"contracts/Inharitance.sol\":348:377  lastVisited = block.timestamp */\n  dup2\n  swap1\n  sstore\n  pop\n    /* \"contracts/Inharitance.sol\":396:406  msg.sender */\n  caller\n    /* \"contracts/Inharitance.sol\":388:393  owner */\n  0x03\n  0x00\n    /* \"contracts/Inharitance.sol\":388:406  owner = msg.sender */\n  0x0100\n  exp\n  dup2\n  sload\n  dup2\n  0xffffffffffffffffffffffffffffffffffffffff\n  mul\n  not\n  and\n  swap1\n  dup4\n  0xffffffffffffffffffffffffffffffffffffffff\n  and\n  mul\n  or\n  swap1\n  sstore\n  pop\n    /* \"contracts/Inharitance.sol\":429:439  _recepient */\n  dup2\n    /* \"contracts/Inharitance.sol\":417:426  recepient */\n  0x04\n  0x00\n    /* \"contracts/Inharitance.sol\":417:439  recepient = _recepient */\n  0x0100\n  exp\n  dup2\n  sload\n  dup2\n  0xffffffffffffffffffffffffffffffffffffffff\n  mul\n  not\n  and\n  swap1\n  dup4\n  0xffffffffffffffffffffffffffffffffffffffff\n  and\n  mul\n  or\n  swap1\n  sstore\n  pop\n    /* \"contracts/Inharitance.sol\":204:447  constructor(address payable _recepient, uint _years){... */\n  pop\n  pop\n    /* \"contracts/Inharitance.sol\":60:1111  contract Inharitance{... */\n  jump(tag_8)\n    /* \"#utility.yul\":88:205   */\ntag_10:\n    /* \"#utility.yul\":197:198   */\n  0x00\n    /* \"#utility.yul\":194:195   */\n  0x00\n    /* \"#utility.yul\":187:199   */\n  revert\n    /* \"#utility.yul\":334:460   */\ntag_12:\n    /* \"#utility.yul\":371:378   */\n  0x00\n    /* \"#utility.yul\":411:453   */\n  0xffffffffffffffffffffffffffffffffffffffff\n    /* \"#utility.yul\":404:409   */\n  dup3\n    /* \"#utility.yul\":400:454   */\n  and\n    /* \"#utility.yul\":389:454   */\n  swap1\n  pop\n    /* \"#utility.yul\":334:460   */\n  swap2\n  swap1\n  pop\n  jump\t// out\n    /* \"#utility.yul\":466:570   */\ntag_13:\n    /* \"#utility.yul\":511:518   */\n  0x00\n    /* \"#utility.yul\":540:564   */\n  tag_26\n    /* \"#utility.yul\":558:563   */\n  dup3\n    /* \"#utility.yul\":540:564   */\n  tag_12\n  jump\t// in\ntag_26:\n    /* \"#utility.yul\":529:564   */\n  swap1\n  pop\n    /* \"#utility.yul\":466:570   */\n  swap2\n  swap1\n  pop\n  jump\t// out\n    /* \"#utility.yul\":576:714   */\ntag_14:\n    /* \"#utility.yul\":657:689   */\n  tag_28\n    /* \"#utility.yul\":683:688   */\n  dup2\n    /* \"#utility.yul\":657:689   */\n  tag_13\n  jump\t// in\ntag_28:\n    /* \"#utility.yul\":650:655   */\n  dup2\n    /* \"#utility.yul\":647:690   */\n  eq\n    /* \"#utility.yul\":637:708   */\n  tag_29\n  jumpi\n    /* \"#utility.yul\":704:705   */\n  0x00\n    /* \"#utility.yul\":701:702   */\n  0x00\n    /* \"#utility.yul\":694:706   */\n  revert\n    /* \"#utility.yul\":637:708   */\ntag_29:\n    /* \"#utility.yul\":576:714   */\n  pop\n  jump\t// out\n    /* \"#utility.yul\":720:879   */\ntag_15:\n    /* \"#utility.yul\":785:790   */\n  0x00\n    /* \"#utility.yul\":816:822   */\n  dup2\n    /* \"#utility.yul\":810:823   */\n  mload\n    /* \"#utility.yul\":801:823   */\n  swap1\n  pop\n    /* \"#utility.yul\":832:873   */\n  tag_31\n    /* \"#utility.yul\":867:872   */\n  dup2\n    /* \"#utility.yul\":832:873   */\n  tag_14\n  jump\t// in\ntag_31:\n    /* \"#utility.yul\":720:879   */\n  swap3\n  swap2\n  pop\n  pop\n  jump\t// out\n    /* \"#utility.yul\":885:962   */\ntag_16:\n    /* \"#utility.yul\":922:929   */\n  0x00\n    /* \"#utility.yul\":951:956   */\n  dup2\n    /* \"#utility.yul\":940:956   */\n  swap1\n  pop\n    /* \"#utility.yul\":885:962   */\n  swap2\n  swap1\n  pop\n  jump\t// out\n    /* \"#utility.yul\":968:1090   */\ntag_17:\n    /* \"#utility.yul\":1041:1065   */\n  tag_34\n    /* \"#utility.yul\":1059:1064   */\n  dup2\n    /* \"#utility.yul\":1041:1065   */\n  tag_16\n  jump\t// in\ntag_34:\n    /* \"#utility.yul\":1034:1039   */\n  dup2\n    /* \"#utility.yul\":1031:1066   */\n  eq\n    /* \"#utility.yul\":1021:1084   */\n  tag_35\n  jumpi\n    /* \"#utility.yul\":1080:1081   */\n  0x00\n    /* \"#utility.yul\":1077:1078   */\n  0x00\n    /* \"#utility.yul\":1070:1082   */\n  revert\n    /* \"#utility.yul\":1021:1084   */\ntag_35:\n    /* \"#utility.yul\":968:1090   */\n  pop\n  jump\t// out\n    /* \"#utility.yul\":1096:1239   */\ntag_18:\n    /* \"#utility.yul\":1153:1158   */\n  0x00\n    /* \"#utility.yul\":1184:1190   */\n  dup2\n    /* \"#utility.yul\":1178:1191   */\n  mload\n    /* \"#utility.yul\":1169:1191   */\n  swap1\n  pop\n    /* \"#utility.yul\":1200:1233   */\n  tag_37\n    /* \"#utility.yul\":1227:1232   */\n  dup2\n    /* \"#utility.yul\":1200:1233   */\n  tag_17\n  jump\t// in\ntag_37:\n    /* \"#utility.yul\":1096:1239   */\n  swap3\n  swap2\n  pop\n  pop\n  jump\t// out\n    /* \"#utility.yul\":1245:1768   */\ntag_3:\n    /* \"#utility.yul\":1332:1338   */\n  0x00\n    /* \"#utility.yul\":1340:1346   */\n  0x00\n    /* \"#utility.yul\":1389:1391   */\n  0x40\n    /* \"#utility.yul\":1377:1386   */\n  dup4\n    /* \"#utility.yul\":1368:1375   */\n  dup6\n    /* \"#utility.yul\":1364:1387   */\n  sub\n    /* \"#utility.yul\":1360:1392   */\n  slt\n    /* \"#utility.yul\":1357:1476   */\n  iszero\n  tag_39\n  jumpi\n    /* \"#utility.yul\":1395:1474   */\n  tag_40\n  tag_10\n  jump\t// in\ntag_40:\n    /* \"#utility.yul\":1357:1476   */\ntag_39:\n    /* \"#utility.yul\":1515:1516   */\n  0x00\n    /* \"#utility.yul\":1540:1612   */\n  tag_41\n    /* \"#utility.yul\":1604:1611   */\n  dup6\n    /* \"#utility.yul\":1595:1601   */\n  dup3\n    /* \"#utility.yul\":1584:1593   */\n  dup7\n    /* \"#utility.yul\":1580:1602   */\n  add\n    /* \"#utility.yul\":1540:1612   */\n  tag_15\n  jump\t// in\ntag_41:\n    /* \"#utility.yul\":1530:1612   */\n  swap3\n  pop\n    /* \"#utility.yul\":1486:1622   */\n  pop\n    /* \"#utility.yul\":1661:1663   */\n  0x20\n    /* \"#utility.yul\":1687:1751   */\n  tag_42\n    /* \"#utility.yul\":1743:1750   */\n  dup6\n    /* \"#utility.yul\":1734:1740   */\n  dup3\n    /* \"#utility.yul\":1723:1732   */\n  dup7\n    /* \"#utility.yul\":1719:1741   */\n  add\n    /* \"#utility.yul\":1687:1751   */\n  tag_18\n  jump\t// in\ntag_42:\n    /* \"#utility.yul\":1677:1751   */\n  swap2\n  pop\n    /* \"#utility.yul\":1632:1761   */\n  pop\n    /* \"#utility.yul\":1245:1768   */\n  swap3\n  pop\n  swap3\n  swap1\n  pop\n  jump\t// out\n    /* \"#utility.yul\":1774:1954   */\ntag_19:\n    /* \"#utility.yul\":1822:1899   */\n  0x4e487b7100000000000000000000000000000000000000000000000000000000\n    /* \"#utility.yul\":1819:1820   */\n  0x00\n    /* \"#utility.yul\":1812:1900   */\n  mstore\n    /* \"#utility.yul\":1919:1923   */\n  0x11\n    /* \"#utility.yul\":1916:1917   */\n  0x04\n    /* \"#utility.yul\":1909:1924   */\n  mstore\n    /* \"#utility.yul\":1943:1947   */\n  0x24\n    /* \"#utility.yul\":1940:1941   */\n  0x00\n    /* \"#utility.yul\":1933:1948   */\n  revert\n    /* \"#utility.yul\":1960:2370   */\ntag_7:\n    /* \"#utility.yul\":2000:2007   */\n  0x00\n    /* \"#utility.yul\":2023:2043   */\n  tag_45\n    /* \"#utility.yul\":2041:2042   */\n  dup3\n    /* \"#utility.yul\":2023:2043   */\n  tag_16\n  jump\t// in\ntag_45:\n    /* \"#utility.yul\":2018:2043   */\n  swap2\n  pop\n    /* \"#utility.yul\":2057:2077   */\n  tag_46\n    /* \"#utility.yul\":2075:2076   */\n  dup4\n    /* \"#utility.yul\":2057:2077   */\n  tag_16\n  jump\t// in\ntag_46:\n    /* \"#utility.yul\":2052:2077   */\n  swap3\n  pop\n    /* \"#utility.yul\":2112:2113   */\n  dup3\n    /* \"#utility.yul\":2109:2110   */\n  dup3\n    /* \"#utility.yul\":2105:2114   */\n  mul\n    /* \"#utility.yul\":2134:2164   */\n  tag_47\n    /* \"#utility.yul\":2152:2163   */\n  dup2\n    /* \"#utility.yul\":2134:2164   */\n  tag_16\n  jump\t// in\ntag_47:\n    /* \"#utility.yul\":2123:2164   */\n  swap2\n  pop\n    /* \"#utility.yul\":2313:2314   */\n  dup3\n    /* \"#utility.yul\":2304:2311   */\n  dup3\n    /* \"#utility.yul\":2300:2315   */\n  div\n    /* \"#utility.yul\":2297:2298   */\n  dup5\n    /* \"#utility.yul\":2294:2316   */\n  eq\n    /* \"#utility.yul\":2274:2275   */\n  dup4\n    /* \"#utility.yul\":2267:2276   */\n  iszero\n    /* \"#utility.yul\":2247:2330   */\n  or\n    /* \"#utility.yul\":2224:2363   */\n  tag_48\n  jumpi\n    /* \"#utility.yul\":2343:2361   */\n  tag_49\n  tag_19\n  jump\t// in\ntag_49:\n    /* \"#utility.yul\":2224:2363   */\ntag_48:\n    /* \"#utility.yul\":2008:2370   */\n  pop\n    /* \"#utility.yul\":1960:2370   */\n  swap3\n  swap2\n  pop\n  pop\n  jump\t// out\n    /* \"contracts/Inharitance.sol\":60:1111  contract Inharitance{... */\ntag_8:\n  dataSize(sub_0)\n  dup1\n  dataOffset(sub_0)\n  0x00\n  codecopy\n  0x00\n  return\nstop\n\nsub_0: assembly {\n        /* \"contracts/Inharitance.sol\":60:1111  contract Inharitance{... */\n      mstore(0x40, 0x80)\n      jumpi(tag_1, lt(calldatasize, 0x04))\n      shr(0xe0, calldataload(0x00))\n      dup1\n      0x4e71d92d\n      eq\n      tag_2\n      jumpi\n      dup1\n      0x5c36b186\n      eq\n      tag_3\n      jumpi\n      dup1\n      0xa6b7fc5b\n      eq\n      tag_4\n      jumpi\n      dup1\n      0xd0e30db0\n      eq\n      tag_5\n      jumpi\n      dup1\n      0xd65517f6\n      eq\n      tag_6\n      jumpi\n    tag_1:\n      revert(0x00, 0x00)\n        /* \"contracts/Inharitance.sol\":824:992  function claim() external onlyRecepient{... */\n    tag_2:\n      callvalue\n      dup1\n      iszero\n      tag_7\n      jumpi\n      revert(0x00, 0x00)\n    tag_7:\n      pop\n      tag_8\n      tag_9\n      jump\t// in\n    tag_8:\n      stop\n        /* \"contracts/Inharitance.sol\":736:816  function ping() public onlyOwner{... */\n    tag_3:\n      callvalue\n      dup1\n      iszero\n      tag_10\n      jumpi\n      revert(0x00, 0x00)\n    tag_10:\n      pop\n      tag_11\n      tag_12\n      jump\t// in\n    tag_11:\n      stop\n        /* \"contracts/Inharitance.sol\":1000:1102  function retrive() external onlyOwner{... */\n    tag_4:\n      callvalue\n      dup1\n      iszero\n      tag_13\n      jumpi\n      revert(0x00, 0x00)\n    tag_13:\n      pop\n      tag_14\n      tag_15\n      jump\t// in\n    tag_14:\n      stop\n        /* \"contracts/Inharitance.sol\":637:728  function deposit() public payable onlyOwner{... */\n    tag_5:\n      tag_16\n      tag_17\n      jump\t// in\n    tag_16:\n      stop\n        /* \"contracts/Inharitance.sol\":128:151  uint public lastVisited */\n    tag_6:\n      callvalue\n      dup1\n      iszero\n      tag_18\n      jumpi\n      revert(0x00, 0x00)\n    tag_18:\n      pop\n      tag_19\n      tag_20\n      jump\t// in\n    tag_19:\n      mload(0x40)\n      tag_21\n      swap2\n      swap1\n      tag_22\n      jump\t// in\n    tag_21:\n      mload(0x40)\n      dup1\n      swap2\n      sub\n      swap1\n      return\n        /* \"contracts/Inharitance.sol\":824:992  function claim() external onlyRecepient{... */\n    tag_9:\n        /* \"contracts/Inharitance.sol\":599:608  recepient */\n      0x04\n      0x00\n      swap1\n      sload\n      swap1\n      0x0100\n      exp\n      swap1\n      div\n      0xffffffffffffffffffffffffffffffffffffffff\n      and\n        /* \"contracts/Inharitance.sol\":585:608  msg.sender == recepient */\n      0xffffffffffffffffffffffffffffffffffffffff\n      and\n        /* \"contracts/Inharitance.sol\":585:595  msg.sender */\n      caller\n        /* \"contracts/Inharitance.sol\":585:608  msg.sender == recepient */\n      0xffffffffffffffffffffffffffffffffffffffff\n      and\n      eq\n        /* \"contracts/Inharitance.sol\":577:609  require(msg.sender == recepient) */\n      tag_24\n      jumpi\n      revert(0x00, 0x00)\n    tag_24:\n        /* \"contracts/Inharitance.sol\":914:922  tenYears */\n      sload(0x01)\n        /* \"contracts/Inharitance.sol\":896:911  block.timestamp */\n      timestamp\n        /* \"contracts/Inharitance.sol\":896:922  block.timestamp - tenYears */\n      tag_26\n      swap2\n      swap1\n      tag_27\n      jump\t// in\n    tag_26:\n        /* \"contracts/Inharitance.sol\":882:893  lastVisited */\n      sload(0x02)\n        /* \"contracts/Inharitance.sol\":882:922  lastVisited < block.timestamp - tenYears */\n      lt\n        /* \"contracts/Inharitance.sol\":874:923  require(lastVisited < block.timestamp - tenYears) */\n      tag_28\n      jumpi\n      revert(0x00, 0x00)\n    tag_28:\n        /* \"contracts/Inharitance.sol\":942:951  recepient */\n      0x04\n      0x00\n      swap1\n      sload\n      swap1\n      0x0100\n      exp\n      swap1\n      div\n      0xffffffffffffffffffffffffffffffffffffffff\n      and\n        /* \"contracts/Inharitance.sol\":934:961  payable(recepient).transfer */\n      0xffffffffffffffffffffffffffffffffffffffff\n      and\n        /* \"contracts/Inharitance.sol\":934:984  payable(recepient).transfer(address(this).balance) */\n      0x08fc\n        /* \"contracts/Inharitance.sol\":962:983  address(this).balance */\n      selfbalance\n        /* \"contracts/Inharitance.sol\":934:984  payable(recepient).transfer(address(this).balance) */\n      swap1\n      dup2\n      iszero\n      mul\n      swap1\n      mload(0x40)\n      0x00\n      mload(0x40)\n      dup1\n      dup4\n      sub\n      dup2\n      dup6\n      dup9\n      dup9\n      call\n      swap4\n      pop\n      pop\n      pop\n      pop\n      iszero\n      dup1\n      iszero\n      tag_30\n      jumpi\n      returndatacopy(0x00, 0x00, returndatasize)\n      revert(0x00, returndatasize)\n    tag_30:\n      pop\n        /* \"contracts/Inharitance.sol\":824:992  function claim() external onlyRecepient{... */\n      jump\t// out\n        /* \"contracts/Inharitance.sol\":736:816  function ping() public onlyOwner{... */\n    tag_12:\n        /* \"contracts/Inharitance.sol\":508:513  owner */\n      0x03\n      0x00\n      swap1\n      sload\n      swap1\n      0x0100\n      exp\n      swap1\n      div\n      0xffffffffffffffffffffffffffffffffffffffff\n      and\n        /* \"contracts/Inharitance.sol\":494:513  msg.sender == owner */\n      0xffffffffffffffffffffffffffffffffffffffff\n      and\n        /* \"contracts/Inharitance.sol\":494:504  msg.sender */\n      caller\n        /* \"contracts/Inharitance.sol\":494:513  msg.sender == owner */\n      0xffffffffffffffffffffffffffffffffffffffff\n      and\n      eq\n        /* \"contracts/Inharitance.sol\":486:514  require(msg.sender == owner) */\n      tag_32\n      jumpi\n      revert(0x00, 0x00)\n    tag_32:\n        /* \"contracts/Inharitance.sol\":793:808  block.timestamp */\n      timestamp\n        /* \"contracts/Inharitance.sol\":779:790  lastVisited */\n      0x02\n        /* \"contracts/Inharitance.sol\":779:808  lastVisited = block.timestamp */\n      dup2\n      swap1\n      sstore\n      pop\n        /* \"contracts/Inharitance.sol\":736:816  function ping() public onlyOwner{... */\n      jump\t// out\n        /* \"contracts/Inharitance.sol\":1000:1102  function retrive() external onlyOwner{... */\n    tag_15:\n        /* \"contracts/Inharitance.sol\":508:513  owner */\n      0x03\n      0x00\n      swap1\n      sload\n      swap1\n      0x0100\n      exp\n      swap1\n      div\n      0xffffffffffffffffffffffffffffffffffffffff\n      and\n        /* \"contracts/Inharitance.sol\":494:513  msg.sender == owner */\n      0xffffffffffffffffffffffffffffffffffffffff\n      and\n        /* \"contracts/Inharitance.sol\":494:504  msg.sender */\n      caller\n        /* \"contracts/Inharitance.sol\":494:513  msg.sender == owner */\n      0xffffffffffffffffffffffffffffffffffffffff\n      and\n      eq\n        /* \"contracts/Inharitance.sol\":486:514  require(msg.sender == owner) */\n      tag_35\n      jumpi\n      revert(0x00, 0x00)\n    tag_35:\n        /* \"contracts/Inharitance.sol\":1056:1061  owner */\n      0x03\n      0x00\n      swap1\n      sload\n      swap1\n      0x0100\n      exp\n      swap1\n      div\n      0xffffffffffffffffffffffffffffffffffffffff\n      and\n        /* \"contracts/Inharitance.sol\":1048:1071  payable(owner).transfer */\n      0xffffffffffffffffffffffffffffffffffffffff\n      and\n        /* \"contracts/Inharitance.sol\":1048:1094  payable(owner).transfer(address(this).balance) */\n      0x08fc\n        /* \"contracts/Inharitance.sol\":1072:1093  address(this).balance */\n      selfbalance\n        /* \"contracts/Inharitance.sol\":1048:1094  payable(owner).transfer(address(this).balance) */\n      swap1\n      dup2\n      iszero\n      mul\n      swap1\n      mload(0x40)\n      0x00\n      mload(0x40)\n      dup1\n      dup4\n      sub\n      dup2\n      dup6\n      dup9\n      dup9\n      call\n      swap4\n      pop\n      pop\n      pop\n      pop\n      iszero\n      dup1\n      iszero\n      tag_38\n      jumpi\n      returndatacopy(0x00, 0x00, returndatasize)\n      revert(0x00, returndatasize)\n    tag_38:\n      pop\n        /* \"contracts/Inharitance.sol\":1000:1102  function retrive() external onlyOwner{... */\n      jump\t// out\n        /* \"contracts/Inharitance.sol\":637:728  function deposit() public payable onlyOwner{... */\n    tag_17:\n        /* \"contracts/Inharitance.sol\":508:513  owner */\n      0x03\n      0x00\n      swap1\n      sload\n      swap1\n      0x0100\n      exp\n      swap1\n      div\n      0xffffffffffffffffffffffffffffffffffffffff\n      and\n        /* \"contracts/Inharitance.sol\":494:513  msg.sender == owner */\n      0xffffffffffffffffffffffffffffffffffffffff\n      and\n        /* \"contracts/Inharitance.sol\":494:504  msg.sender */\n      caller\n        /* \"contracts/Inharitance.sol\":494:513  msg.sender == owner */\n      0xffffffffffffffffffffffffffffffffffffffff\n      and\n      eq\n        /* \"contracts/Inharitance.sol\":486:514  require(msg.sender == owner) */\n      tag_40\n      jumpi\n      revert(0x00, 0x00)\n    tag_40:\n        /* \"contracts/Inharitance.sol\":705:720  block.timestamp */\n      timestamp\n        /* \"contracts/Inharitance.sol\":691:702  lastVisited */\n      0x02\n        /* \"contracts/Inharitance.sol\":691:720  lastVisited = block.timestamp */\n      dup2\n      swap1\n      sstore\n      pop\n        /* \"contracts/Inharitance.sol\":637:728  function deposit() public payable onlyOwner{... */\n      jump\t// out\n        /* \"contracts/Inharitance.sol\":128:151  uint public lastVisited */\n    tag_20:\n      sload(0x02)\n      dup2\n      jump\t// out\n        /* \"#utility.yul\":7:84   */\n    tag_42:\n        /* \"#utility.yul\":44:51   */\n      0x00\n        /* \"#utility.yul\":73:78   */\n      dup2\n        /* \"#utility.yul\":62:78   */\n      swap1\n      pop\n        /* \"#utility.yul\":7:84   */\n      swap2\n      swap1\n      pop\n      jump\t// out\n        /* \"#utility.yul\":90:208   */\n    tag_43:\n        /* \"#utility.yul\":177:201   */\n      tag_48\n        /* \"#utility.yul\":195:200   */\n      dup2\n        /* \"#utility.yul\":177:201   */\n      tag_42\n      jump\t// in\n    tag_48:\n        /* \"#utility.yul\":172:175   */\n      dup3\n        /* \"#utility.yul\":165:202   */\n      mstore\n        /* \"#utility.yul\":90:208   */\n      pop\n      pop\n      jump\t// out\n        /* \"#utility.yul\":214:436   */\n    tag_22:\n        /* \"#utility.yul\":307:311   */\n      0x00\n        /* \"#utility.yul\":345:347   */\n      0x20\n        /* \"#utility.yul\":334:343   */\n      dup3\n        /* \"#utility.yul\":330:348   */\n      add\n        /* \"#utility.yul\":322:348   */\n      swap1\n      pop\n        /* \"#utility.yul\":358:429   */\n      tag_50\n        /* \"#utility.yul\":426:427   */\n      0x00\n        /* \"#utility.yul\":415:424   */\n      dup4\n        /* \"#utility.yul\":411:428   */\n      add\n        /* \"#utility.yul\":402:408   */\n      dup5\n        /* \"#utility.yul\":358:429   */\n      tag_43\n      jump\t// in\n    tag_50:\n        /* \"#utility.yul\":214:436   */\n      swap3\n      swap2\n      pop\n      pop\n      jump\t// out\n        /* \"#utility.yul\":442:622   */\n    tag_44:\n        /* \"#utility.yul\":490:567   */\n      0x4e487b7100000000000000000000000000000000000000000000000000000000\n        /* \"#utility.yul\":487:488   */\n      0x00\n        /* \"#utility.yul\":480:568   */\n      mstore\n        /* \"#utility.yul\":587:591   */\n      0x11\n        /* \"#utility.yul\":584:585   */\n      0x04\n        /* \"#utility.yul\":577:592   */\n      mstore\n        /* \"#utility.yul\":611:615   */\n      0x24\n        /* \"#utility.yul\":608:609   */\n      0x00\n        /* \"#utility.yul\":601:616   */\n      revert\n        /* \"#utility.yul\":628:822   */\n    tag_27:\n        /* \"#utility.yul\":668:672   */\n      0x00\n        /* \"#utility.yul\":688:708   */\n      tag_53\n        /* \"#utility.yul\":706:707   */\n      dup3\n        /* \"#utility.yul\":688:708   */\n      tag_42\n      jump\t// in\n    tag_53:\n        /* \"#utility.yul\":683:708   */\n      swap2\n      pop\n        /* \"#utility.yul\":722:742   */\n      tag_54\n        /* \"#utility.yul\":740:741   */\n      dup4\n        /* \"#utility.yul\":722:742   */\n      tag_42\n      jump\t// in\n    tag_54:\n        /* \"#utility.yul\":717:742   */\n      swap3\n      pop\n        /* \"#utility.yul\":766:767   */\n      dup3\n        /* \"#utility.yul\":763:764   */\n      dup3\n        /* \"#utility.yul\":759:768   */\n      sub\n        /* \"#utility.yul\":751:768   */\n      swap1\n      pop\n        /* \"#utility.yul\":790:791   */\n      dup2\n        /* \"#utility.yul\":784:788   */\n      dup2\n        /* \"#utility.yul\":781:792   */\n      gt\n        /* \"#utility.yul\":778:815   */\n      iszero\n      tag_55\n      jumpi\n        /* \"#utility.yul\":795:813   */\n      tag_56\n      tag_44\n      jump\t// in\n    tag_56:\n        /* \"#utility.yul\":778:815   */\n    tag_55:\n        /* \"#utility.yul\":628:822   */\n      swap3\n      swap2\n      pop\n      pop\n      jump\t// out\n\n    auxdata: 0xa2646970667358221220ed906277d20768249238a9101fb33d7919042e048e5d459990f760e8779b083864736f6c634300081e0033\n}\n",
				"bytecode": {
					"linkReferences": {},
					"object": "608060405234801561000f575f5ffd5b5060405161060f38038061060f8339818101604052810190610031919061016c565b806301e1338061004191906101d7565b600181905550425f81905550426002819055503360035f6101000a81548173ffffffffffffffffffffffffffffffffffffffff021916908373ffffffffffffffffffffffffffffffffffffffff1602179055508160045f6101000a81548173ffffffffffffffffffffffffffffffffffffffff021916908373ffffffffffffffffffffffffffffffffffffffff1602179055505050610218565b5f5ffd5b5f73ffffffffffffffffffffffffffffffffffffffff82169050919050565b5f610108826100df565b9050919050565b610118816100fe565b8114610122575f5ffd5b50565b5f815190506101338161010f565b92915050565b5f819050919050565b61014b81610139565b8114610155575f5ffd5b50565b5f8151905061016681610142565b92915050565b5f5f60408385031215610182576101816100db565b5b5f61018f85828601610125565b92505060206101a085828601610158565b9150509250929050565b7f4e487b71000000000000000000000000000000000000000000000000000000005f52601160045260245ffd5b5f6101e182610139565b91506101ec83610139565b92508282026101fa81610139565b91508282048414831517610211576102106101aa565b5b5092915050565b6103ea806102255f395ff3fe608060405260043610610049575f3560e01c80634e71d92d1461004d5780635c36b18614610063578063a6b7fc5b14610079578063d0e30db01461008f578063d65517f614610099575b5f5ffd5b348015610058575f5ffd5b506100616100c3565b005b34801561006e575f5ffd5b5061007761019c565b005b348015610084575f5ffd5b5061008d6101fd565b005b6100976102bc565b005b3480156100a4575f5ffd5b506100ad61031d565b6040516100ba919061033b565b60405180910390f35b60045f9054906101000a900473ffffffffffffffffffffffffffffffffffffffff1673ffffffffffffffffffffffffffffffffffffffff163373ffffffffffffffffffffffffffffffffffffffff161461011b575f5ffd5b600154426101299190610381565b60025410610135575f5ffd5b60045f9054906101000a900473ffffffffffffffffffffffffffffffffffffffff1673ffffffffffffffffffffffffffffffffffffffff166108fc4790811502906040515f60405180830381858888f19350505050158015610199573d5f5f3e3d5ffd5b50565b60035f9054906101000a900473ffffffffffffffffffffffffffffffffffffffff1673ffffffffffffffffffffffffffffffffffffffff163373ffffffffffffffffffffffffffffffffffffffff16146101f4575f5ffd5b42600281905550565b60035f9054906101000a900473ffffffffffffffffffffffffffffffffffffffff1673ffffffffffffffffffffffffffffffffffffffff163373ffffffffffffffffffffffffffffffffffffffff1614610255575f5ffd5b60035f9054906101000a900473ffffffffffffffffffffffffffffffffffffffff1673ffffffffffffffffffffffffffffffffffffffff166108fc4790811502906040515f60405180830381858888f193505050501580156102b9573d5f5f3e3d5ffd5b50565b60035f9054906101000a900473ffffffffffffffffffffffffffffffffffffffff1673ffffffffffffffffffffffffffffffffffffffff163373ffffffffffffffffffffffffffffffffffffffff1614610314575f5ffd5b42600281905550565b60025481565b5f819050919050565b61033581610323565b82525050565b5f60208201905061034e5f83018461032c565b92915050565b7f4e487b71000000000000000000000000000000000000000000000000000000005f52601160045260245ffd5b5f61038b82610323565b915061039683610323565b92508282039050818111156103ae576103ad610354565b5b9291505056fea2646970667358221220ed906277d20768249238a9101fb33d7919042e048e5d459990f760e8779b083864736f6c634300081e0033",
					"opcodes": "PUSH1 0x80 PUSH1 0x40 MSTORE CALLVALUE DUP1 ISZERO PUSH2 0xF JUMPI PUSH0 PUSH0 REVERT JUMPDEST POP PUSH1 0x40 MLOAD PUSH2 0x60F CODESIZE SUB DUP1 PUSH2 0x60F DUP4 CODECOPY DUP2 DUP2 ADD PUSH1 0x40 MSTORE DUP2 ADD SWAP1 PUSH2 0x31 SWAP2 SWAP1 PUSH2 0x16C JUMP JUMPDEST DUP1 PUSH4 0x1E13380 PUSH2 0x41 SWAP2 SWAP1 PUSH2 0x1D7 JUMP JUMPDEST PUSH1 0x1 DUP2 SWAP1 SSTORE POP TIMESTAMP PUSH0 DUP2 SWAP1 SSTORE POP TIMESTAMP PUSH1 0x2 DUP2 SWAP1 SSTORE POP CALLER PUSH1 0x3 PUSH0 PUSH2 0x100 EXP DUP2 SLOAD DUP2 PUSH20 0xFFFFFFFFFFFFFFFFFFFFFFFFFFFFFFFFFFFFFFFF MUL NOT AND SWAP1 DUP4 PUSH20 0xFFFFFFFFFFFFFFFFFFFFFFFFFFFFFFFFFFFFFFFF AND MUL OR SWAP1 SSTORE POP DUP2 PUSH1 0x4 PUSH0 PUSH2 0x100 EXP DUP2 SLOAD DUP2 PUSH20 0xFFFFFFFFFFFFFFFFFFFFFFFFFFFFFFFFFFFFFFFF MUL NOT AND SWAP1 DUP4 PUSH20 0xFFFFFFFFFFFFFFFFFFFFFFFFFFFFFFFFFFFFFFFF AND MUL OR SWAP1 SSTORE POP POP POP PUSH2 0x218 JUMP JUMPDEST PUSH0 PUSH0 REVERT JUMPDEST PUSH0 PUSH20 0xFFFFFFFFFFFFFFFFFFFFFFFFFFFFFFFFFFFFFFFF DUP3 AND SWAP1 POP SWAP2 SWAP1 POP JUMP JUMPDEST PUSH0 PUSH2 0x108 DUP3 PUSH2 0xDF JUMP JUMPDEST SWAP1 POP SWAP2 SWAP1 POP JUMP JUMPDEST PUSH2 0x118 DUP2 PUSH2 0xFE JUMP JUMPDEST DUP2 EQ PUSH2 0x122 JUMPI PUSH0 PUSH0 REVERT JUMPDEST POP JUMP JUMPDEST PUSH0 DUP2 MLOAD SWAP1 POP PUSH2 0x133 DUP2 PUSH2 0x10F JUMP JUMPDEST SWAP3 SWAP2 POP POP JUMP JUMPDEST PUSH0 DUP2 SWAP1 POP SWAP2 SWAP1 POP JUMP JUMPDEST PUSH2 0x14B DUP2 PUSH2 0x139 JUMP JUMPDEST DUP2 EQ PUSH2 0x155 JUMPI PUSH0 PUSH0 REVERT JUMPDEST POP JUMP JUMPDEST PUSH0 DUP2 MLOAD SWAP1 POP PUSH2 0x166 DUP2 PUSH2 0x142 JUMP JUMPDEST SWAP3 SWAP2 POP POP JUMP JUMPDEST PUSH0 PUSH0 PUSH1 0x40 DUP4 DUP6 SUB SLT ISZERO PUSH2 0x182 JUMPI PUSH2 0x181 PUSH2 0xDB JUMP JUMPDEST JUMPDEST PUSH0 PUSH2 0x18F DUP6 DUP3 DUP7 ADD PUSH2 0x125 JUMP JUMPDEST SWAP3 POP POP PUSH1 0x20 PUSH2 0x1A0 DUP6 DUP3 DUP7 ADD PUSH2 0x158 JUMP JUMPDEST SWAP2 POP POP SWAP3 POP SWAP3 SWAP1 POP JUMP JUMPDEST PUSH32 0x4E487B7100000000000000000000000000000000000000000000000000000000 PUSH0 MSTORE PUSH1 0x11 PUSH1 0x4 MSTORE PUSH1 0x24 PUSH0 REVERT JUMPDEST PUSH0 PUSH2 0x1E1 DUP3 PUSH2 0x139 JUMP JUMPDEST SWAP2 POP PUSH2 0x1EC DUP4 PUSH2 0x139 JUMP JUMPDEST SWAP3 POP DUP3 DUP3 MUL PUSH2 0x1FA DUP2 PUSH2 0x139 JUMP JUMPDEST SWAP2 POP DUP3 DUP3 DIV DUP5 EQ DUP4 ISZERO OR PUSH2 0x211 JUMPI PUSH2 0x210 PUSH2 0x1AA JUMP JUMPDEST JUMPDEST POP SWAP3 SWAP2 POP POP JUMP JUMPDEST PUSH2 0x3EA DUP1 PUSH2 0x225 PUSH0 CODECOPY PUSH0 RETURN INVALID PUSH1 0x80 PUSH1 0x40 MSTORE PUSH1 0x4 CALLDATASIZE LT PUSH2 0x49 JUMPI PUSH0 CALLDATALOAD PUSH1 0xE0 SHR DUP1 PUSH4 0x4E71D92D EQ PUSH2 0x4D JUMPI DUP1 PUSH4 0x5C36B186 EQ PUSH2 0x63 JUMPI DUP1 PUSH4 0xA6B7FC5B EQ PUSH2 0x79 JUMPI DUP1 PUSH4 0xD0E30DB0 EQ PUSH2 0x8F JUMPI DUP1 PUSH4 0xD65517F6 EQ PUSH2 0x99 JUMPI JUMPDEST PUSH0 PUSH0 REVERT JUMPDEST CALLVALUE DUP1 ISZERO PUSH2 0x58 JUMPI PUSH0 PUSH0 REVERT JUMPDEST POP PUSH2 0x61 PUSH2 0xC3 JUMP JUMPDEST STOP JUMPDEST CALLVALUE DUP1 ISZERO PUSH2 0x6E JUMPI PUSH0 PUSH0 REVERT JUMPDEST POP PUSH2 0x77 PUSH2 0x19C JUMP JUMPDEST STOP JUMPDEST CALLVALUE DUP1 ISZERO PUSH2 0x84 JUMPI PUSH0 PUSH0 REVERT JUMPDEST POP PUSH2 0x8D PUSH2 0x1FD JUMP JUMPDEST STOP JUMPDEST PUSH2 0x97 PUSH2 0x2BC JUMP JUMPDEST STOP JUMPDEST CALLVALUE DUP1 ISZERO PUSH2 0xA4 JUMPI PUSH0 PUSH0 REVERT JUMPDEST POP PUSH2 0xAD PUSH2 0x31D JUMP JUMPDEST PUSH1 0x40 MLOAD PUSH2 0xBA SWAP2 SWAP1 PUSH2 0x33B JUMP JUMPDEST PUSH1 0x40 MLOAD DUP1 SWAP2 SUB SWAP1 RETURN JUMPDEST PUSH1 0x4 PUSH0 SWAP1 SLOAD SWAP1 PUSH2 0x100 EXP SWAP1 DIV PUSH20 0xFFFFFFFFFFFFFFFFFFFFFFFFFFFFFFFFFFFFFFFF AND PUSH20 0xFFFFFFFFFFFFFFFFFFFFFFFFFFFFFFFFFFFFFFFF AND CALLER PUSH20 0xFFFFFFFFFFFFFFFFFFFFFFFFFFFFFFFFFFFFFFFF AND EQ PUSH2 0x11B JUMPI PUSH0 PUSH0 REVERT JUMPDEST PUSH1 0x1 SLOAD TIMESTAMP PUSH2 0x129 SWAP2 SWAP1 PUSH2 0x381 JUMP JUMPDEST PUSH1 0x2 SLOAD LT PUSH2 0x135 JUMPI PUSH0 PUSH0 REVERT JUMPDEST PUSH1 0x4 PUSH0 SWAP1 SLOAD SWAP1 PUSH2 0x100 EXP SWAP1 DIV PUSH20 0xFFFFFFFFFFFFFFFFFFFFFFFFFFFFFFFFFFFFFFFF AND PUSH20 0xFFFFFFFFFFFFFFFFFFFFFFFFFFFFFFFFFFFFFFFF AND PUSH2 0x8FC SELFBALANCE SWAP1 DUP2 ISZERO MUL SWAP1 PUSH1 0x40 MLOAD PUSH0 PUSH1 0x40 MLOAD DUP1 DUP4 SUB DUP2 DUP6 DUP9 DUP9 CALL SWAP4 POP POP POP POP ISZERO DUP1 ISZERO PUSH2 0x199 JUMPI RETURNDATASIZE PUSH0 PUSH0 RETURNDATACOPY RETURNDATASIZE PUSH0 REVERT JUMPDEST POP JUMP JUMPDEST PUSH1 0x3 PUSH0 SWAP1 SLOAD SWAP1 PUSH2 0x100 EXP SWAP1 DIV PUSH20 0xFFFFFFFFFFFFFFFFFFFFFFFFFFFFFFFFFFFFFFFF AND PUSH20 0xFFFFFFFFFFFFFFFFFFFFFFFFFFFFFFFFFFFFFFFF AND CALLER PUSH20 0xFFFFFFFFFFFFFFFFFFFFFFFFFFFFFFFFFFFFFFFF AND EQ PUSH2 0x1F4 JUMPI PUSH0 PUSH0 REVERT JUMPDEST TIMESTAMP PUSH1 0x2 DUP2 SWAP1 SSTORE POP JUMP JUMPDEST PUSH1 0x3 PUSH0 SWAP1 SLOAD SWAP1 PUSH2 0x100 EXP SWAP1 DIV PUSH20 0xFFFFFFFFFFFFFFFFFFFFFFFFFFFFFFFFFFFFFFFF AND PUSH20 0xFFFFFFFFFFFFFFFFFFFFFFFFFFFFFFFFFFFFFFFF AND CALLER PUSH20 0xFFFFFFFFFFFFFFFFFFFFFFFFFFFFFFFFFFFFFFFF AND EQ PUSH2 0x255 JUMPI PUSH0 PUSH0 REVERT JUMPDEST PUSH1 0x3 PUSH0 SWAP1 SLOAD SWAP1 PUSH2 0x100 EXP SWAP1 DIV PUSH20 0xFFFFFFFFFFFFFFFFFFFFFFFFFFFFFFFFFFFFFFFF AND PUSH20 0xFFFFFFFFFFFFFFFFFFFFFFFFFFFFFFFFFFFFFFFF AND PUSH2 0x8FC SELFBALANCE SWAP1 DUP2 ISZERO MUL SWAP1 PUSH1 0x40 MLOAD PUSH0 PUSH1 0x40 MLOAD DUP1 DUP4 SUB DUP2 DUP6 DUP9 DUP9 CALL SWAP4 POP POP POP POP ISZERO DUP1 ISZERO PUSH2 0x2B9 JUMPI RETURNDATASIZE PUSH0 PUSH0 RETURNDATACOPY RETURNDATASIZE PUSH0 REVERT JUMPDEST POP JUMP JUMPDEST PUSH1 0x3 PUSH0 SWAP1 SLOAD SWAP1 PUSH2 0x100 EXP SWAP1 DIV PUSH20 0xFFFFFFFFFFFFFFFFFFFFFFFFFFFFFFFFFFFFFFFF AND PUSH20 0xFFFFFFFFFFFFFFFFFFFFFFFFFFFFFFFFFFFFFFFF AND CALLER PUSH20 0xFFFFFFFFFFFFFFFFFFFFFFFFFFFFFFFFFFFFFFFF AND EQ PUSH2 0x314 JUMPI PUSH0 PUSH0 REVERT JUMPDEST TIMESTAMP PUSH1 0x2 DUP2 SWAP1 SSTORE POP JUMP JUMPDEST PUSH1 0x2 SLOAD DUP2 JUMP JUMPDEST PUSH0 DUP2 SWAP1 POP SWAP2 SWAP1 POP JUMP JUMPDEST PUSH2 0x335 DUP2 PUSH2 0x323 JUMP JUMPDEST DUP3 MSTORE POP POP JUMP JUMPDEST PUSH0 PUSH1 0x20 DUP3 ADD SWAP1 POP PUSH2 0x34E PUSH0 DUP4 ADD DUP5 PUSH2 0x32C JUMP JUMPDEST SWAP3 SWAP2 POP POP JUMP JUMPDEST PUSH32 0x4E487B7100000000000000000000000000000000000000000000000000000000 PUSH0 MSTORE PUSH1 0x11 PUSH1 0x4 MSTORE PUSH1 0x24 PUSH0 REVERT JUMPDEST PUSH0 PUSH2 0x38B DUP3 PUSH2 0x323 JUMP JUMPDEST SWAP2 POP PUSH2 0x396 DUP4 PUSH2 0x323 JUMP JUMPDEST SWAP3 POP DUP3 DUP3 SUB SWAP1 POP DUP2 DUP2 GT ISZERO PUSH2 0x3AE JUMPI PUSH2 0x3AD PUSH2 0x354 JUMP JUMPDEST JUMPDEST SWAP3 SWAP2 POP POP JUMP INVALID LOG2 PUSH5 0x6970667358 0x22 SLT KECCAK256 0xED SWAP1 PUSH3 0x77D207 PUSH9 0x249238A9101FB33D79 NOT DIV 0x2E DIV DUP15 TSTORE GASLIMIT SWAP10 SWAP1 0xF7 PUSH1 0xE8 PUSH24 0x9B083864736F6C634300081E003300000000000000000000 "
				},
				"gasEstimates": {
					"creation": {
						"codeDepositCost": "200400",
						"executionCost": "infinite",
						"totalCost": "infinite"
					},
					"external": {
						"claim()": "infinite",
						"deposit()": "24445",
						"lastVisited()": "2491",
						"ping()": "24425",
						"retrive()": "infinite"
					}
				},
				"methodIdentifiers": {
					"claim()": "4e71d92d",
					"deposit()": "d0e30db0",
					"lastVisited()": "d65517f6",
					"ping()": "5c36b186",
					"retrive()": "a6b7fc5b"
				}
			},
			"storageLayout": {
				"storage": [
					{
						"astId": 3,
						"contract": "contracts/Inharitance.sol:Inharitance",
						"label": "startTime",
						"offset": 0,
						"slot": "0",
						"type": "t_uint256"
					},
					{
						"astId": 5,
						"contract": "contracts/Inharitance.sol:Inharitance",
						"label": "tenYears",
						"offset": 0,
						"slot": "1",
						"type": "t_uint256"
					},
					{
						"astId": 7,
						"contract": "contracts/Inharitance.sol:Inharitance",
						"label": "lastVisited",
						"offset": 0,
						"slot": "2",
						"type": "t_uint256"
					},
					{
						"astId": 9,
						"contract": "contracts/Inharitance.sol:Inharitance",
						"label": "owner",
						"offset": 0,
						"slot": "3",
						"type": "t_address"
					},
					{
						"astId": 11,
						"contract": "contracts/Inharitance.sol:Inharitance",
						"label": "recepient",
						"offset": 0,
						"slot": "4",
						"type": "t_address"
					}
				],
				"types": {
					"t_address": {
						"encoding": "inplace",
						"label": "address",
						"numberOfBytes": "20"
					},
					"t_uint256": {
						"encoding": "inplace",
						"label": "uint256",
						"numberOfBytes": "32"
					}
				}
			},
			"userdoc": {
				"kind": "user",
				"methods": {},
				"version": 1
			}
		}
	}
}